:1019E400626175643D3078256C580D0A003D3D3DBB
:1019F4003D3D3D6E6565642070617573653D3D3D9B
:101A04003D3D3D3D0D0A003D3D3D3D3D3D6E6F7408
:101A1400206E6565642070617573653D3D3D3D3D97
:101A24003D3D0D0A0052657365740D0A0068656CCE
:101A34006C6F0D0A00756469736B49734F6B203DBD
:101A440020310D0A002B2B2B2B2B2B2B2B2B2B2B51
:101A54002B2B2B2B2B2B2B2B2B2B2B2B2B2B2B2BD2
:101A64002B2B2B2B2B2B2B2B2B2B0D0A0074696D63
:101A7400656F75740D0A00120110010000000886DC
:101A84001A019563010102000109023E00020100EE
:101A940080F00904000003FF010200070582022010
:101AA4000000070502022000000705810308000A60
:101AB4000904010002080650000705030240000063
:101AC4000705830240000A008002021F000000771D
:101AD40063682E636E2020C7DFBAE3B5E7D7D3551A
:101AE400C5CCB7BDB0B800312E31300000000800BD
:101AF40000080000000200000007FF000010000BB7
:101B040000000800000800000002000006000008B1
:101B14000000080000080000000200003000C300BC
:101B2400FFEC9FECFFECDFECDFECDFEC9FEC9FECD9
:061B34009FEC9FECFFECAA
:1011A6004703E000E10000000008012300012400DD
:1011B600012D00410374004103DE004103D00041CC
:1011C60003C2004103CE006200017000000000006F
:1011D6000000000000000000000000000000000009
:1011E60000000000000000000000000000000000F9
:1011F60000000000000000000000000000000000E9
:1012060000000000000000000000000000000000D8
:1012160000000000000000000000000000000000C8
:1012260000000000000000000000000000000000B8
:1012360000000000000000000000000000000000A8
:101246000000000000000000000000000000000098
:101256000000000000000000000000000000000088
:101266000000000000000000000000000000000078
:101276000000000000000000000000000000000068
:101286000000000000000000000000000000000058
:101296000000000000000000000000000000000048
:1012A6000000000000000000000000000000000038
:1012B6000000000000000000000000000000000028
:1012C6000000000000000000000000000000000018
:1012D6000000000000000000000000000000000008
:1012E60000000000000000000000000000000000F8
:1012F60000000000000000000000000000000000E8
:1013060000000000000000000000000000000000D7
:1013160000000000000000000000000000000000C7
:1013260000000000000000000000000000000000B7
:1013360000000000000000000000000000000000A7
:101346000000000000000000000000000000000097
:101356000000000000000000000000000000000087
:101366000000000000000000000000000000000077
:101376000000000000000000000000000000000067
:101386000000000000000000000000000000000057
:101396000000000000000000000000000000000047
:1013A6000000000000000000000000000000000037
:1013B6000000000000000000000000000000000027
:1013C60000000000000000000000000127004203AA
:1013D600EA000004280000000001B00001AF00018F
:1013E6002C00C112C114C1134203EC00004103C119
:1013F600004103C70041037C0041037600410375A9
:10140600004403BD0001C2004103D1004103D400E2
:0D1416004103DF0001260001AE00012500AA
:0C004600E4782DF67824F618F6C2C022EB
:102119009003777401F0A37403F0A3747DF0C214E3
:10212900C21290037D7455F0A37453F0A37442F066
:10213900A37453F09003D5E0900381F09003D6E0A7
:10214900900382F09003D7E0900383F09003D8E0E6
:10215900900384F09003C6E0900385F09003C5E0F6
:10216900900386F09003C4E0900387F09003C3E0E6
:10217900900388F090037BE0900389F0E4FFEFC3BC
:10218900940D748094805028900377E0FBA3E0FAC3
:10219900A3E0F9120BA2FE74302FF582E43401F5A5
:1021A90083EEF0900378E475F001120BE80F80CE0E
:0621B90075D70D53D6FCA2
:0121BF0022FD
:081F62007ED07D077F007C00AA
:061F6A00900446120DACCC
:101F70007BFF7A1979E4900446E0FCA3E0FDA3E03E
:101F8000FEA3E0FF900452120DAC120EAC9004467A
:101F9000E0FCA3E0FDA3E0FEA3E0FF900370120DC0
:101FA000ACC2EC900446E0F8A3E0F9A3E0FAA3E0A9
:101FB000FB7F007E1C7D4E7C0E120C89E47B10FAA8
:101FC000F9F8120C8990044A120DACE47B0AFAF974
:101FD000F890044AE0FCA3E0FDA3E0FEA3E0FF12BA
:101FE0000C89EB90044EF090044AE0FCA3E0FDA3C2
:101FF000E0FEA3E0FFE47B0AFAF9F8120C899004F2
:102000004A120DAC90044EE0C39405748094804055
:102010001F90044AE0FCA3E0FDA3E0FEA3E024013E
:10202000FFE43EFEE43DFDE43CFC90044A120DACAE
:0D20300090044AA3A3A3E0F404F5C2D2EC8F
:01203D002280
:101B3A00E47F40FEFDFC9003C3E0F8A3E0F9A3E0D4
:101B4A00FAA3E0FBD3120D1B402A9004467440F01E
:101B5A009003C3E0FCA3E0FDA3E0FEA3E09440FFF2
:101B6A00EE9400FEED9400FDEC9400FC9003C31289
:101B7A000DAC80179003C3A3A3A3E0900446F09092
:101B8A0003C3120DB800000000C212E4FF9004461D
:101B9A00E0FEEFC39E5028900377E0FBA3E0FAA390
:101BAA00E0F9120BA2FE74302FF582E43401F583BA
:101BBA00EEF0900378E475F001120BE80F80CE90F6
:101BCA000446E0F5D753D6FCE4FF7E02FDFC7828F4
:101BDA00120D5EC3120D1B5003021C77900446E0DF
:101BEA00FF9003EDE02FF09003ECE03400F0E0B456
:101BFA00023DA3E0B400383012357BFF7A1979F13F
:101C0A00120EAC9003C17401F09003C7F0E4900384
:101C1A00ECF0A3F07828120D52C3EF9400FFEE9473
:101C2A0002FEED9400FDEC9400FC7828020DA090D1
:101C3A0003ECE0B40237A3E0B4003220122FE490A0
:101C4A0003ECF0A3F09003C1F07828120D52C3EF11
:101C5A009400FFEE9402FEED9400FDEC9400FC78F3
:0D1C6A0028120DA07BFF7A1A790B120EAC28
:011C7700224A
:101C78009003EF120DB8000003209003F3E5DBF0AA
:101C8800E4A3F09003F3E0FFA3E0FE6F602074F09C
:101C98002EF582E43400F583E0FF74F52EF582E436
:101CA8003403F583EFF09003F4E004F080D5E4907A
:101CB800037CF053B0FB9003EF120DB8000012C084
:101CC8009003EF74FF120D6DEC4D4E4F70F29003C0
:101CD800F4F09003F3E0FFA3E0FEC39F501774F500
:101CE8002EF582E43403F583E0FF1225DA9003F43D
:101CF800E004F080DD9003CAE0F8A3E0F9A3E0FA7D
:101D0800A3E0FB9003F3E0FFE4FCFDFEEB2FFFEE06
:101D18003AFEED39FDEC38FC9003CA120DAC900385
:101D2800C3E0FCA3E0FDA3E0FEA3E0FFECC0E0ED10
:101D3800C0E0EEC0E0EFC0E09003F3E0FBD0E0FFCE
:101D4800D0E0FED0E0FDD0E0FCC3EF9BFFEE9400B6
:101D5800FEED9400FDEC9400FC9003C3120DACE47E
:101D6800FFFEFDFC9003C3E0F8A3E0F9A3E0FAA3AB
:0D1D7800E0FBC3120D1B7005C213122119F0
:011D8500223B
:10203E00121F62120046E490037CF09003C3E0FC92
:10204E00A3E0FDA3E0FEA3E0FF7828120DA07F55CC
:10205E001225DA7FBB1225DAE4FF1225DA9003C3CC
:10206E00E0FCA3E0FDA3E0FEA3E0FF7818120D2C28
:10207E00E41225DA9003C3E0FCA3E0FDA3E0FEA387
:10208E00E0FF7810120D2CE41225DA9003C3E0FC69
:10209E00A3E0FDA3E0FEA3E0FF7808120D2CE412EE
:1020AE0025DA9003C3E0FCA3E0FDA3E0FEA3E0FF6E
:1020BE00E41225DA9003DAE0FCA3E0FDA3E0FEA330
:1020CE00E0FF7818120D2CE41225DA9003DAE0FC0A
:1020DE00A3E0FDA3E0FEA3E0FF7810120D2CE412A6
:1020EE0025DA9003DAE0FCA3E0FDA3E0FEA3E0FF17
:1020FE007808120D2CE41225DA9003DAE0FCA3E046
:0B210E00FDA3E0FEA3E0FFE40225DAE1
:101665009003EF120DB8000000009003F7120DB8BB
:101675000003D090E490037CF0FF7ED07D07FC1240
:101685001F6A12004653B0FB90038FE0FFE4FCFD98
:10169500FE7810120D3FECC0E0EDC0E0EEC0E0EFCB
:1016A500C0E090038EE0FFE4FCFDFE7818120D3FCC
:1016B500D0E0FBD0E0FAD0E0F9D0E0F8EF4BFFEE58
:1016C5004AFEED49FDEC48C0E0EDC0E0EEC0E0EFBC
:1016D500C0E0900390E0FFE4FCFDFE7808120D3FAA
:1016E500D0E0FBD0E0FAD0E0F9D0E0F8EF4BFBEE2C
:1016F5004AFAED49F9EC48F8A3E0FFEB4FFFEAFEA3
:10170500E9FDE8FC9003DA120DACE4FF7E10FDFC68
:101715009003DAE0F8A3E0F9A3E0FAA3E0FB120BEB
:10172500FE9003CA120DAC900394E0FFE4FCFDFEAD
:101735009003EF120DACE4FF7E10FDFC9003EFE08B
:10174500F8A3E0F9A3E0FAA3E0FB120BFE9003F384
:10175500120DAC7F551225DA7FBB1225DA7FFF12F9
:1017650025DA9003F3E0FCA3E0FDA3E0FEA3E0FF90
:101775007818120D2CE41225DA9003F3E0FCA3E0AF
:10178500FDA3E0FEA3E0FF7810120D2CE41225DA8C
:101795009003F3E0FCA3E0FDA3E0FEA3E0FF7808DF
:1017A500120D2CE41225DA9003F3E0FCA3E0FDA36F
:1017B500E0FEA3E0FFE41225DA9003DAE0FCA3E003
:1017C500FDA3E0FEA3E0FF7818120D2CE41225DA44
:1017D5009003DAE0FCA3E0FDA3E0FEA3E0FF7810B0
:1017E500120D2CE41225DA9003DAE0FCA3E0FDA348
:1017F500E0FEA3E0FF7808120D2CE41225DA900331
:10180500DAE0FCA3E0FDA3E0FEA3E0FFE41225DAA5
:101815009003F774FF120D6DEC4D4E4F70F290036F
:0A1825007BF090037AF09003D2F0FC
:01182F002296
:101E79009003757401F053B0FB9003C1F0E4900333
:101E89007CF0900393E0FFE4FCFDFE7808120D3F1F
:101E9900ECF8EDF9EEFAEFFBA3E0FFEB4FFFEAFEFA
:101EA900E9FDE8FCE4FB7A10F9F8120BFE9003C394
:101EB900120DAC90038FE0FFE4FCFDFE7810120DCB
:101EC9003FECC0E0EDC0E0EEC0E0EFC0E090038E73
:101ED900E0FFE4FCFDFE7818120D3FD0E0FBD0E0F6
:101EE900FAD0E0F9D0E0F8EF4BFFEE4AFEED49FDFC
:101EF900EC48C0E0EDC0E0EEC0E0EFC0E090039038
:101F0900E0FFE4FCFDFE7808120D3FD0E0FBD0E0D5
:101F1900FAD0E0F9D0E0F8EF4BFBEE4AFAED49F9D7
:101F2900EC48F8A3E0FFEB4FFFEAFEE9FDE8FC907F
:101F390003DA120DAC9003C3E0FCA3E0FDA3E0FEBD
:101F4900A3E0FF7828120DA012203EE490037BF055
:091F590090037AF09003D2F0220B
:0E003200E490037BF090037AF09003D2F0226A
:1025B600C213C212E490037BF090037AF09003D228
:0225C600F02201
:10246F0090038EE0643F703F7F10FEFDFC9003C32E
:10247F00E0F8A3E0F9A3E0FAA3E0FBD3120D1B40B1
:10248F000A9003C3120DB80000001090037774FF79
:10249F00F0A3741BF0A3740FF0E490037BF0900390
:1024AF007AF09003D2F022C21290037A7405F09062
:1024BF0003D27420F090037B7401F043D203F02217
:1018300090038CE0120DE918D40018DE0318621230
:10184000197E1A18D11B18CE1E189723194B25186C
:10185000DB2818CB2A19B25A19B5A319B5C0000054
:1018600019C790037774FFF0A3741AF0A374CBF038
:10187000E47F24FEFDFC9003C3E0F8A3E0F9A3E0BD
:10188000FAA3E0FBD3120D1B403F9003C3120DB827
:101890000000002402194990037774FFF0A3741A22
:1018A000F0A374EFF0E47F0CFEFDFC9003C3E0F8BE
:1018B000A3E0F9A3E0FAA3E0FBD3120D1B400A90CA
:1018C00003C3120DB80000000C807E0216650200F2
:1018D000320225B6C213C2120219B5021E79900354
:1018E0007D7470F0E4A3F090037AE090037FF0E45D
:1018F000A3F0A3F0A3F0A3F0A3740AF0E4A3F0A371
:10190000F0A3F0A3F09003D2E0900389F0E4A3F0F9
:10191000A3F0A3F0A3F0A3F090037704F0A3740363
:10192000F0A3747DF0E47F12FEFDFC9003C3E0F8A9
:10193000A3E0F9A3E0FAA3E0FBD3120D1B400A9049
:1019400003C3120DB800000012806AE47F08FEFD98
:10195000FC9003C3E0F8A3E0F9A3E0FAA3E0FBD313
:10196000120D1B400A9003C3120DB800000008902E
:10197000037774FFF0A3741AF0A374FB8031E47F43
:101980000CFEFDFC9003C3E0F8A3E0F9A3E0FAA38A
:10199000E0FBD3120D1B400A9003C3120DB80000E8
:1019A000000C90037774FFF0A3741BF0A37403F092
:1019B000800302246FE490037BF090037AF090039D
:1019C000D2F0782776012290037A7405F09003D242
:1019D0007420F090037B7401F0C21243D60343D607
:0419E0000C04F022E1
:1021C00090037DE064556003022257A3E0645360EE
:1021D00003022255A3E064427079A3E06443707760
:1021E000900385E09003C6F0900386E09003C5F06D
:1021F000900387E09003C4F0900388E09003C3F05D
:10220000900381E09003D5F0900382E09003D6F034
:10221000900383E09003D7F0900384E09003D8F01C
:102220009003C3E0FCA3E0FDA3E0FEA3E0FFEC4DC0
:102230004E4F601A900389E030E703C38001D392C8
:1022400013900389E030E703D38001C39212D214C4
:0B2250000218308002800043D60322F9
:101D86009003F0120DB800000000900003120BBB88
:101D96009003F0F0900002120BBB9003F1F090005C
:101DA60001120BBB9003F2F0120BA29003F3F0C2E8
:101DB600EC9003F0E0F8A3E0F9A3E0FAA3E0FB7FE0
:101DC600007E1C7D4E7C0E120C89E47B10FAF9F81D
:101DD600120C899003F4120DACE47B0AFAF9F89020
:101DE60003F4E0FCA3E0FDA3E0FEA3E0FF120C89F0
:101DF600EB9003F8F09003F4E0FCA3E0FDA3E0FE13
:101E0600A3E0FFE47B0AFAF9F8120C899003F412B6
:101E16000DAC9003F8E0C3940574809480401F9045
:101E260003F4E0FCA3E0FDA3E0FEA3E02401FFE44D
:101E36003EFEE43DFDE43CFC9003F4120DAC900341
:101E4600F4A3A3A3E0F404F5C2D2EC9003F0E0FC03
:101E5600A3E0FDA3E0FEA3E0FF9003BD120DAC904E
:101E660003F0E0FCA3E0FDA3E0FEA3E0FF90037017
:031E7600020DACAE
:1024CF00E4FF7EE1FDFC900370E0F8A3E0F9A3E0E8
:1024DF00FAA3E0FBC3120D1B602C900370120DB812
:1024EF000000E100C2EC900370E0F8A3E0F9A3E074
:1024FF00FAA3E0FB7F607EE37D167C00120C89EF70
:07250F00F404F5C2D2EC2236
:030053000225166D
:10251600C0E0C0D0E8C0E030C01C7823E606242E18
:10252600F8A6C1782D067823E6C39480748094803B
:0E25360040027600C2C0D0E0F8D0D0D0E03233
:10000300EF2441602024E0600A24E060042460704F
:100013001D800853B0F75390EF800643B008439018
:0F002300104390202243B0084390105390DF22E7
:101424009003EFEDF0EF247F60561470030214D89C
:1014340014700302154124FC700302163E24076055
:101444000302165C9003EFE02427601D244360032D
:1014540002165CE49003E3F09003E2F09003E1F001
:101464009003E0746EF002165CE49003E3F09003E2
:10147400E2F09003E104F09003E0742CF002165CB7
:101484009003EFE0244E602324D960302475600378
:1014940002165CE49003E3F09003E2F09003E1743D
:1014A40002F09003E07458F002165CE49003E3F059
:1014B4009003E2F09003E17404021635E49003E330
:1014C400F09003E2F09003E17409F09003E074609B
:1014D400F002165C9003EFE0244E602024E66034B2
:1014E40024F360482475600302165CE49003E3F07F
:1014F4009003E2F09003E1741202161CE49003E3FB
:10150400F09003E2F09003E17425F09003E074801E
:10151400F002165CE49003E3F09003E2F09003E140
:101524007438F09003E07440F002165CE49003E336
:10153400F09003E2F09003E1744B0216569003EF2F
:10154400E0120DE9156D64157E95158F9815A0CCE4
:1015540015B2D115C4E615D7E915E9F315FAF41651
:101564000CF61625F80000165CE49003E3F09003F3
:10157400E2F09003E17496021656E49003E3F090CF
:1015840003E2F09003E174DA02161CE49003E3F042
:101594009003E2F09003E174E1021656E49003E351
:1015A400F09003E204F09003E174C2021656E49052
:1015B40003E3F09003E204F09003E174F40216569E
:1015C400E49003E3F09003E27403F09003E1748485
:1015D400021656E49003E3F09003E27403F09003E0
:1015E400E174E8806DE49003E3F09003E27407F0A3
:1015F4009003E104805CE49003E3F09003E2740759
:10160400F09003E174D0804AE49003E3F09003E2A5
:101614007409F09003E17427F09003E074C0F08043
:1016240037E49003E3F09003E2740BF09003E17469
:1016340071F09003E074B0F0801E9003EFE0240D8D
:101644007016E49003E3F09003E2740EF09003E16B
:101654007410F0E49003E0F07B017A0379E0021D5A
:0116640086FF
:10240500E4F5E253E27F43E229F5E353E2BF53D11A
:10241500FB75D18043D1017400FE74008EEDF5EC9F
:1024250075DC02E4F5DD75EBCC75EA407400FE74ED
:10243500A08EEFF5EE75D212E4F5D37400FE7408A4
:102445008EE5F5E475D412E4F5D57400FE74F08ECE
:10245500E7F5E675D612E4F5D743E10443E1024317
:0A246500E10143D81FD2EAD2AF22F2
:0300430002005662
:0D005600C0E0C0F0C083C082C0D075D008EB
:1000630020D903020595E5D9543F70030204E42423
:10007300FE700302050514700302053924E37003BF
:1000830002045E24FE70030204F3147003020523CA
:1000930024F360030205939003EEE5DBF0E06408CC
:1000A3006003020429900007E0FE900006E0FDEDE6
:1000B300FF9003C8EEF0A3EFF0900002E0FE900380
:1000C300D1F09003EEE4F0900001E09003CFF090C4
:1000D3000000E0546070030201DF9003CFE024C00E
:1000E300604D24A6606924F6604D24A670030201C6
:1000F30090243E60030201A69003DEE0FF2420F972
:10010300E4341BFA9003E774FFF0A3EAF0A3E9F0E9
:100113009003EE7402F0EFC39418748094809003FC
:10012300DE5007E02402F00201AC7418F0807A90EC
:1001330003EE7409F0807290037CE06401706A43FB
:10014300B0041200469003D1E0FF120003805A90DE
:1001530003D3EEF0900003E09003D4F0EE6412704A
:1001630048E064137043900004E09003D9F09000DA
:1001730005E09003DFF090037CE06401702B9003B3
:10018300D9E0FF9003DFE0FD121424801C9003E705
:1001930074FFF0A3741BF0A3741FF09003EE7401BB
:1001A300F080069003EE74FFF09003EEE0FF7E0014
:1001B300D39003C9E09F9003C8E09E4005EEF0A3EF
:1001C300EFF09003C8E0FEA3E0FFC39408EE9400B1
:1001D30040077D08EDFF02027F02027F9003CFE01C
:1001E300B40B0040030204279001F2F8282873029D
:1001F30003F40202FB02042702035B020427020248
:10020300BD0202130204270202CD0202F002042FF0
:10021300900003E024FE601904702C9003E774FF40
:10022300F0A3741AF0A3747BF09003EE7412F080C1
:100233001C9003E774FFF0A3741AF0A3748DF0907D
:1002430003EE743EF080069003EE74FFF09003EE2D
:10025300E0FF7E00D39003C9E09F9003C8E09E4077
:1002630005EEF0A3EFF09003C8E0FEA3E0FFC39414
:1002730008EE940040067D08EDFF80009003EEEF4A
:10028300F07E007400F87400FC7401FD9003E7E055
:10029300FBA3E0FAA3E0F9120B7C9003EEE0FF7EF0
:1002A30000C39003C9E09FF09003C8E09EF0900361
:1002B300E8EE8FF0120BE802042F900002E0FF90AB
:1002C30003C8E4F0A3EFF002042F900374E090005E
:1002D30000F0C39003C9E094019003C8E094005078
:1002E3000302042F9003EE7401F002042F90000226
:1002F300E0900374F002042F900000E0541F6402A6
:100303007053900004E024FE60241460372481605D
:100313001214602024027068E5D254BC4402F5D262
:1003230002042FE5D454BC4402F5D402042F53D461
:100333007302042FE5D654BC4402F5D620140302FD
:10034300042F800953D67320140302042FC21412FE
:10035300211902042F020429900000E0541FFD7CA0
:10036300007020900003E0FE900002E0FBEB6401CC
:100373004E700D901A949330E50302042F02042962
:10038300020429ED64024C7066900003E0FE9000C5
:1003930002E0FDED4E7056900005E0FE900004E093
:1003A300FDEDFFEE7045EF24FE60221460332481DF
:1003B300601114602224027032E5D254BF4403F565
:1003C300D28069E5D454BF4403F5D4805FE5D454A7
:1003D3007F440CF5D48055E5D654BF4403F5D6804D
:1003E3004BE5D6547F440CF5D68041803980378065
:1003F30035900000E0541F70087402F0A3E4F0800D
:1004030007900000E4F0A3F09003C8E0FEA3E0FF30
:10041300C39402EE94009003EE40057402F0800C46
:10042300EFF0800880009003EE74FFF09003EEE09D
:10043300FF7E00F470099003CF74FFF0020593D39D
:10044300EF9408EE6480948050089003EEE0F5DDAD
:10045300800375DD0075DCC00205939003CFE024B3
:10046300FB605C1470699003C8E0FEA3E0FFC394D3
:1004730008EE940040067D08EDFF80009003EEEF48
:10048300F07E007400F87400FC7401FD9003E7E053
:10049300FBA3E0FAA3E0F9120B7C9003EEE0FFFD6F
:1004A3007C00C39003C9E09DF09003C8E09CF090EA
:1004B30003E8EC8DF0120BE88FDD63DC40801090D5
:1004C30003C8A3E0FFE5E354804FF5E375DC029036
:1004D30003EEE0F46003020593F5DD75DC0202052B
:1004E300939003EEE5DBF075DD0075DC0002059308
:1004F30075D500E5D454FC4402F5D4782576000282
:10050300059320DE030205939003EEE5DBF07826E6
:10051300A6DB78AE7600E5D454F34408F5D48070B6
:1005230030120C9003D0E004F0E5D654FC805D302B
:10053300145EC214804730DE57301305121C7880D6
:100543004FAFDBEF604A9003EEE4F09003EEE0FE82
:10055300C39F502074F02EF582E43400F583E0FD50
:10056300747D2EF582E43403F583EDF09003EEE021
:1005730004F080D71221C02013162012051221196E
:10058300800E9003C2E004F0E5D654F34402F5D69E
:10059300C2D930D8357BFF7A1A7929120EAC75DCB3
:1005A3000275D21275D41275D61275E300C2DAC27F
:1005B300D9C2D878237600087600782D760078267D
:1005C3007600187600900374E4F030DA23C2DAE59B
:1005D300DA30E21FE5A220E7FB75A15575A1AA75E4
:1005E300A9C143870275A15575A1AA75A900800306
:0305F30075D8FFB9
:0B05F600D0D0D082D083D0F0D0E03213
:10256B0043B0084390105390DF7F0A7E0012259FE3
:0A257B0043902043901043B0082263
:10060100900435120DB800000000E4900439F0A305
:10061100F0A3F0A3120DB800000000E4900440F034
:10062100A3120DB800000000E4900445F01225C8A3
:100631007FD07E0712259F5392BF5393BF43928071
:1006410053937F4396085397F74396045397FB437D
:1006510092105393EF4392205393DF4390104390B2
:10066100207FC87E0012259F12225B122380121F59
:10067100627BFF7A1A7931120EAC12240512004600
:10068100E49003EAF0A3F053B0FB900374E060FA46
:100691007826E6603390037CE0701204F07BFF7AE9
:1006A1001A7939120EAC7EC27D01121F6678AEE650
:1006B100062408F582E43400F583E0FF1225DA7898
:1006C1002616E6700353D4F3782DE6600690043BBA
:1006D100E004F0900375E0640160030208CA90032E
:1006E1007CE060030208CA782DE690043AF0E0FF4E
:1006F1007E00D3941F74809480500DA3E0945074B5
:100701008094805003020808D3EF9400EE64809433
:1007110080500302079990043AE0FF7824E62FFF06
:10072100E433FED3EF9480EE6480948040047480BF
:1007310096F090043AE0FFC3782DE69FF67E0078AC
:1007410024E6242EF9E4FBC0E0C0E0E9C0E0900318
:10075100EAE0FCA3E02470F974013CFA0BE9F8EA41
:10076100FCEBFDD0E0F9D0E0FAD0E0FB120B7C907D
:10077100043AE0FFFD9003EBE02DF09003EAE03452
:1007810000F07824EF26F6E6C394807480948040CC
:1007910002E4F6E490043BF09003EAE064027002A4
:1007A100A3E0600302096D9003EAE0FEA3E0FFE429
:1007B100FCFDC0E0C0E0EEC0E0EFC0E07828120D23
:1007C10052D0E0FBD0E0FAD0E0F9D0E0F8C3EF9BE3
:1007D100FFEE9AFEED99FDEC98FC900435120DACFC
:1007E1009003777401F0A37401F0A37470F0E490A6
:1007F10003EAF0A3F090043AF09003C1F09003757E
:10080100F012004602096D90043AE0600302096D9E
:10081100900441E0FCA3E0FDA3E0FEA3E02401FF7E
:10082100E43EFEE43DFDE43CFC900441120DACE4E9
:100831007FF07EFFFDFC900441E0F8A3E0F9A3E026
:10084100FAA3E0FBD3120D1B4010900441120DB826
:1008510000000000900445E004F0900445E0D394CA
:100861000374809480500302096DE4F090044112F6
:100871000DB80000000053B0FBE49003EAF0A3F0D0
:1008810090043AF0A3F07F551225DA7FBB1225DAE6
:100891007F031225DAE4FF1225DAE4FF1225DAE4F8
:1008A100FF1225DAE4FF1225DAE4FF1225DAE4FF6C
:1008B1001225DAE4FF1225DAE4FF1225DA7BFF7A4A
:1008C1001A7949120EAC02068B7825E660030209FB
:1008D1006D782DE690043AF0E0FF7E00D394007429
:1008E100809480500302096DD3EF941F748094802B
:1008F100500AA3E09464748094804070E490043BB7
:10090100F090043AE0FF7824E62FFFE433FED3EFC2
:100911009480EE648094804004748096F090043A50
:10092100E0FFC3782DE69FF67E007824E6242EF9B9
:10093100E4FBC0E0C0E0E9C0E00B7448F87400FCDF
:10094100EBFDD0E0F9D0E0FAD0E0FB120B7C900493
:100951003AE0FF782426F6E6C394807480948040C0
:1009610002E4F68FD553D4FC782576019003D0E0CC
:10097100D3940074809480401230120F9003C1E030
:1009810070099003D0E014F0121B3A9003C2E0D337
:10099100940074809480401030120D9003C1E07077
:1009A10007A3E014F0121B3AE4FFFEFDFC900435AE
:1009B100E0F8A3E0F9A3E0FAA3E0FBD3120D1B409A
:1009C1004C900375E0704604F053B0FB121F627F38
:1009D100017E0012259F7F551225DA7FBB1225DA91
:1009E1007F041225DAE4FF1225DAE4FF1225DAE4A6
:1009F100FF1225DAE4FF1225DAE4FF1225DAE4FF1B
:100A01001225DA7FFF1225DA7FFF1225DA90037CA7
:100A1100E0600302068B900375E0600302068B9091
:100A2100043CE0FCA3E0FDA3E0FEA3E02401FFE41D
:100A31003EFEE43DFDE43CFC90043C120DACE47F41
:100A4100F07EFFFDFC90043CE0F8A3E0F9A3E0FA9E
:100A5100A3E0FBD3120D1B4010900440E004F09082
:100A6100043C120DB800000000900440E0D394054E
:100A710074809480500302068BE4F090043C120DC4
:100A8100B80000000090037C7401F043B0049003AF
:100A9100BDE0FCA3E0FDA3E0FEA3E0FF121F6A7B23
:0B0AA100FF7A1A7971120EAC02068B6E
:1025C80075A15575A1AAE5B954F84406F5B9E4F51D
:0225D800A1223E
:10258500EF4E601505A105A105A105A105A105A1B0
:0A25950005A1EF1F70EA1E80E72287
:10259F00AD07AC06ED4C600E7FE87E03122585ED8E
:0725AF001D70F11C80EE22FB
:10225B00C29FD29EC29DC2CDC2CC43878090044602
:10226B00120DB800000082E47B0AFAF9F8900446DC
:10227B00E0FCA3E0FDA3E0FEA3E0FF120C899004B9
:10228B004AEBF0900446E0FCA3E0FDA3E0FEA3E0E4
:10229B00FFE47B0AFAF9F8120C89900446120DAC94
:1022AB0090044AE0C3940574809480401F900446C8
:1022BB00E0FCA3E0FDA3E0FEA3E02401FFE43EFE6F
:1022CB00E43DFDE43CFC900446120DACE589540F53
:1022DB004420F58943C9A0900446A3A3A3E0F404CA
:0822EB00F58DD28ED299D29C30
:0122F30022C8
:10238000C2C7D2C5D2C4900446120DB80000008264
:10239000E47B0AFAF9F8900446E0FCA3E0FDA3E030
:1023A000FEA3E0FF120C8990044AEBF0900446E093
:1023B000FCA3E0FDA3E0FEA3E0FFE47B0AFAF9F84A
:1023C000120C89900446120DAC90044AE0C39405A7
:1023D00074809480401F900446E0FCA3E0FDA3E0DD
:1023E000FEA3E02401FFE43EFEE43DFDE43CFC905E
:1023F0000446120DAC900446A3A3A3E0F404F5C276
:04240000D2ECD2AF99
:0124040022B5
:0825DA008FC130C1FDC2C12216
:030000000222F4E5
:0C22F400787FE4F6D8FD7581B002233B32
:100AAC00E709F608DFFA8046E709F208DFFA803E2C
:100ABC0088828C83E709F0A3DFFA8032E309F60819
:100ACC00DFFA8078E309F208DFFA807088828C8381
:100ADC00E309F0A3DFFA806489828A83E0A3F60835
:100AEC00DFFA805889828A83E0A3F208DFFA804C0F
:100AFC0080D280FA80C680D4806980F280338010E6
:100B0C0080A680EA809A80A880DA80E280CA80334E
:100B1C0089828A83ECFAE493A3C8C582C8CCC583C6
:100B2C00CCF0A3C8C582C8CCC583CCDFE9DEE78096
:100B3C000D89828A83E493A3F608DFF9ECFAA9F015
:100B4C00EDFB2289828A83ECFAE0A3C8C582C8CC6B
:100B5C00C583CCF0A3C8C582C8CCC583CCDFEADE84
:100B6C00E880DB89828A83E493A3F208DFF980CCE6
:100B7C0088F0EF60010E4E60C388F0ED2402B404DF
:100B8C000050B9F582EB2402B4040050AF23234586
:060B9C008223900AFC73A5
:100BA200BB010689828A83E0225002E722BBFE0251
:090BB200E32289828A83E4932284
:100BBB00BB010CE58229F582E5833AF583E02250EF
:100BCB0006E92582F8E622BBFE06E92582F8E22239
:0D0BDB00E58229F582E5833AF583E4932253
:100BE800C5F0F8A3E028F0C5F0F8E5821582700298
:060BF8001583E038F02235
:100BFE00E88FF0A4CC8BF0A42CFCE98EF0A42CFC96
:100C0E008AF0EDA42CFCEA8EF0A4CDA8F08BF0A413
:100C1E002DCC3825F0FDE98FF0A42CCD35F0FCEB72
:100C2E008EF0A4FEA9F0EB8FF0A4CFC5F02ECD3937
:0F0C3E00FEE43CFCEAA42DCE35F0FDE43CFC22A4
:100C4D0075F008758200EF2FFFEE33FECD33CDCC5E
:100C5D0033CCC58233C5829BED9AEC99E5829840E1
:100C6D000CF582EE9BFEED9AFDEC99FC0FD5F0D6BE
:100C7D00E4CEFBE4CDFAE4CCF9A88222B800C1B9E8
:100C8D000059BA002DEC8BF084CFCECDFCE5F0CB26
:100C9D00F97818EF2FFFEE33FEED33FDEC33FCEB5F
:100CAD0033FB10D703994004EB99FB0FD8E5E4F91A
:100CBD00FA227818EF2FFFEE33FEED33FDEC33FC07
:100CCD00C933C910D7059BE99A4007EC9BFCE99AFB
:100CDD00F90FD8E0E4C9FAE4CCFB2275F010EF2F40
:100CED00FFEE33FEED33FDCC33CCC833C810D70740
:100CFD009BEC9AE899400AED9BFDEC9AFCE899F87B
:0E0D0D000FD5F0DAE4CDFBE4CCFAE4C8F9220D
:100D1B00EB9FF5F0EA9E42F0E99D42F0E89C45F02E
:010D2B0022A5
:100D2C00E8600FECC313FCED13FDEE13FEEF13FFA5
:030D3C00D8F122C9
:100D3F00E8600FEFC333FFEE33FEED33FDEC33FC12
:030D4F00D8F122B6
:0C0D5200E6FC08E6FD08E6FE08E6FF22CD
:0D0D5E00E6FB08E6F908E6FA08E6CBF82205
:100D6B007401FF3395E0FEFDFCA3A3A3E0CF2FF0AE
:100D7B00E582158270021583E0CE3EF0E582158286
:100D8B0070021583E0CD3DF0E5821582700215836C
:050D9B00E0CC3CF02259
:0C0DA000ECF608EDF608EEF608EFF6227F
:0C0DAC00ECF0A3EDF0A3EEF0A3EFF022BA
:100DB800A8828583F0D083D082120DCF120DCF1276
:100DC8000DCF120DCFE473E493A3C583C5F0C5839B
:100DD800C8C582C8F0A3C583C5F0C583C8C582C885
:010DE80022E8
:100DE900D083D082F8E4937012740193700DA3A399
:100DF90093F8740193F5828883E4737402936860AD
:060E0900EFA3A3A380DFAC
:100E4100E5152452F582E43404F583E0051522907A
:100E5100044F301003900452E475F001120E210288
:100E61000BA22009E97F2ED2098018EF540F24909C
:100E7100D43440D4FF300D0BEF24BFB41A0050031B
:100E81002461FFE516600215160519E519700205C2
:100E91001830100E90044FE475F001120E21EF028C
:100EA1000E0F0225447403D2108003E4C210F5151D
:100EB10090044F120E38E4F516F518F519E5166091
:100EC100077F20120E8480F57517FFC20AC209C27E
:100ED1000BC20CC20EC20FC211120E50FF700D30A8
:100EE10010057F00120E95AF19AE1822B4255FC20E
:100EF100D5C20D120E50FF24D0B40A00501A75F05D
:100F01000A781630D50508B6FF0106C6A426F620D4
:100F1100D5047002D20C80D924CFB41A00EF50044A
:100F2100C2E5D20D021096D20A80C6D20980C0D283
:100F31000B80BCD2D580BAD20E80B47F20120E8431
:100F4100200B077401B5160040F1120E41FF120E7D
:100F510084020EBED211D20F8095120E41FB120EE9
:100F610041FA120E41F94A4B700679677A117BFFFB
:100F7100200B2EE516602A7E008E82758300120BEF
:100F8100BB60060EEE651770F0C2D5EBC0E0EAC09B
:100F9100E0E9C0E0EE1210DDD0E0F9D0E0FAD0E0F7
:100FA100FB120BA2FF60AAEBC0E0EAC0E0E9C0E0DF
:100FB100120E84D0E02401F9D0E03400FAD0E0FB35
:100FC100E5170460DCD517D980877BFF7A1079D9C2
:100FD100D20B809C791080027908C20FC21180085F
:100FE100D2D5790A8004790AC2D5E517047002F5D1
:100FF10017E4FAFDFEFF120E41FC7B08200A1312D2
:101001000E41FD7B1030090A120E41FE120E41FF06
:101011007B20EC3382D592D55013C3E43009069F6F
:10102100FFE49EFEE4200A039DFDE49CFCE4CBF872
:10103100C20AEC700CCFCECDCCE824F8F870F38066
:1010410017C3EF33FFEE33FEED33FDEC33FCEB332F
:10105100FB994002FB0FD8E9EB300A05F8D0E0C458
:1010610048B20AC0E00AEC4D4E4F78207B0070C2B6
:10107100EAB5170040BCC0E01210DFD0F0D0E0208C
:101081000A04C4C0E0C4B20AC0F0120E6DD0F0D59B
:10109100F0EB020EBE120DE90F5B530FD5580F2C6A
:1010A1004C0F28420FD94F0FE1440FE1490F414343
:0810B1000FE7550FCB460FCBF2
:1010B900450FCB471187500F302D0F342E0F572B6B
:1010C9000F38230F552011702A0EF04800000F4FDA
:1010D9003F3F3F00790AA2D5200C14300E09B91000
:1010E900020404B9080104A2D5200F02500104200A
:1010F9000B68920BB516005034C0E07F20300C19F4
:101109007F30A20B720F720E500F121136C20BC232
:101119000FC20EC2117F30800F300E03E9C0E012FA
:101129000E84300E03D0E0F9D0E0B516CC300E179E
:101139007F30B9100C120E847F58300D077F7880EC
:1011490003B90803120E84300B057F2D020E847F2C
:10115900202011F87F2B200FF322920B80CF286ECD
:10116900756C6C2900D20A120E41300AF8C20A784D
:101179001630D50108F6020EF02D50434958120ECB
:10118900412403B405004001E490118293120E75C5
:0D119900743A120E75D20C751604020FD5B3
:10230000020601E493A3F8E493A34003F68001F2EC
:1023100008DFF48029E493A3F85407240CC8C333DE
:10232000C4540F4420C8834004F456800146F6DFAD
:10233000E4800B01020408102040809011A6E47E86
:10234000019360BCA3FF543F30E509541FFEE493A2
:10235000A360010ECF54C025E060A840B8E493A369
:10236000FAE493A3F8E493A3C8C582C8CAC583CA94
:10237000F0A3C8C582C8CAC583CADFE9DEE780BE4C
:0114230000C8
:100E0F00BB010689828A83F0225002F722BBFE01C2
:020E1F00F322BC
:100E2100F8E0FBA3A3E0F925F0F0E582158270025A
:070E31001583E0FA38F022FE
:090E3800EBF0A3EAF0A3E9F022BB
:10254400EFB40A07740D12254F740A309811A89934
:10255400B8130CC2983098FDA899C298B811F630F7
:0725640099FDC299F59922CF
:00000001FF
